:020000040800F2
:10000000F8060020450100087B220008FB190008C3
:10001000772200087D080008AB43000800000000BC
:10002000000000000000000000000000E92A0008B5
:10003000491300080000000029230008D52B000800
:100040005F0100085F0100085F0100085F01000810
:100050005F0100084D250008C91700085F0100086E
:100060005F0100085F0100085F0100085F010008F0
:10007000450F0008550F00085F010008810F0008B8
:100080009B0F00085F0100085F0100085F01000886
:100090005F0100085F0100085F0100085F010008C0
:1000A0005F0100085F0100085F0100085F010008B0
:1000B0005F0100085F0100085F0100085F010008A0
:1000C0005F0100085F0100085F0100085F01000890
:1000D0005F0100085F0100085F0100085F01000880
:1000E0005F0100085F0100085F0100085F01000870
:1000F0005F0100085F0100085F0100085F01000860
:100100005F0100085F0100085F0100085F0100084F
:100110005F010008E13A00083D2C00085F0100087B
:100120005F0100085F010008B50F00085F010008CB
:10013000DFF80CD000F062F8004800475545000891
:10014000F80600200648804706480047FEE7FEE71D
:10015000FEE7FEE7FEE7FEE7FEE7FEE7FEE7FEE777
:10016000DD2B00083101000840EA01039B0703D0A2
:1001700009E008C9121F08C0042AFAD203E011F8E6
:10018000013B00F8013B521EF9D27047D2B201E0A8
:1001900000F8012B491EFBD270470022F6E710B58C
:1001A00013460A4604461946FFF7F0FF204610BDE5
:1001B00030B505460020034600E05B1C934205D2A3
:1001C000EC5CC85C201A01D1002CF6D130BD30B5F2
:1001D0000B46014600202022012409E021FA02F505
:1001E0009D4205D303FA02F5491B04FA02F528449F
:1001F000151EA2F10102F1DC30BD0000064C074DD6
:1002000006E0E06840F0010394E8070098471034E6
:10021000AC42F6D3FFF790FF54460008744600083E
:1002200070B58C1810F8015B15F0070301D110F8B8
:10023000013B2A1106D110F8012B03E010F8016BE5
:1002400001F8016B5B1EF9D12B0705D40023521E68
:100250000DD401F8013BFAE710F8013BCB1A921CD0
:1002600003E013F8015B01F8015B521EF9D5A142CE
:10027000D8D3002070BD00003EB54FF40070ADF83B
:1002800006000020ADF802004FF47A70ADF80400CB
:100290000C20ADF80000274803F0A8F9694625486E
:1002A00003F0BCFB0121102002F050F84FF4A060D5
:1002B00002F07AF901211F4803F08CF902F02AFBC1
:1002C00000F0ECFA02F0CAFB02F0F8FB00F01CF9B7
:1002D00000F058F8184800680A22B0FBF2F1B1F1BA
:1002E000807F00D31DE021F07F40401E4FF0E022D0
:1002F000506150170F22002807DA13071D0E0F4B0D
:1003000000F00F04241F1D5503E013071C0E0C4BB7
:100310001C5400BF00204FF0E022906107201061C4
:1003200000BF45F2555001F07BFB01F071FB01F07D
:1003300067FB3EBD001000400000002018ED00E00B
:1003400000E400E010B503F09FFA02F049FB00F072
:10035000F5F900F0CCF801F05BFB10BD70B5044678
:100360000D461646324621462846FFF7FDFE70BD73
:1003700070B504460D461646324621462846FFF71C
:10038000F3FE70BD10B502F03DFD01F06BFB10BD3A
:1003900010B502F0F5FC10B102F096FE04E001F099
:1003A00045FB08B101F01CFC10BD10B5044602F07D
:1003B000E7FC18B1204603F035F805E001F036FB04
:1003C00010B1204601F08AFD10BD10B5044602F0C0
:1003D000D7FC18B1204603F037F805E001F026FB02
:1003E00010B1204601F084FD10BD70B504460D46E5
:1003F000092C7AD2DFE804F03C0513213559693D18
:100400004B0002F0BDFC18B10E2003F023F805E00C
:1004100001F00CFB10B1012001F070FD65E002F06D
:10042000AFFC18B10F2003F015F805E001F0FEFA5B
:1004300010B1022001F062FD57E002F0A1FC30B1E2
:10044000012003F001F8102003F004F808E001F0A7
:10045000EDFA28B1012001F04BFD032001F04EFD23
:1004600043E002F08DFC10B1192002F0F3FF3CE0F4
:100470003BE002F085FC18B1284602F0C3FF05E01E
:1004800001F0D4FA10B1062001F038FD2DE002F0A1
:1004900077FC18B1284602F0BDFF05E001F0C6FA6E
:1004A00010B1072001F02AFD1FE002F069FC28B11D
:1004B00002F0D6FD064602F0B5FF05E001F0B6FAFF
:1004C00010B1042001F01AFD0FE002F059FC28B130
:1004D00002F0CCFD064602F0A5FF05E001F0A6FA09
:1004E00010B1052001F00AFD00BF00BF70BD10B5BE
:1004F00002F046FC10B102F0D1FF04E001F096FAE0
:1005000008B101F009FD10BD10B54FF461410E486E
:1005100003F05CFB04220D490B4803F0DDFC0023D3
:1005200003224FF4E061084803F032FD064803F06F
:1005300093FD00F0ABF8CC2005490870DD20C870B1
:1005400004488078487010BD004C00403C000020FA
:10055000480000207345000810B507488079074916
:100560008870042206490548FFF702FF0421044869
:1005700000F078F910BD0000644500084800002034
:100580004000002010B50748C07907498870042250
:1005900006490548FFF7ECFE0421044800F062F923
:1005A00010BD000064450008480000204000002005
:1005B00010B50748407A0749887004220649054863
:1005C000FFF7D6FE0421044800F04CF910BD0000EE
:1005D00064450008480000204000002010B507488E
:1005E000407807498870042206490548FFF7C0FE95
:1005F0000421044800F036F910BD000064450008ED
:10060000480000204000002010B50748C078074986
:100610008870042206490548FFF7AAFE0421044811
:1006200000F020F910BD00006445000848000020DB
:100630004000002010B5074800790749887004225F
:1006400006490548FFF794FE0421044800F00AF922
:1006500010BD000064450008480000204000002054
:1006600010B50748407907498870042206490548B3
:10067000FFF77EFE0421044800F0F4F810BD0000EE
:1006800064450008480000204000002010B50748DD
:10069000807A07498870042206490548FFF768FEFA
:1006A0000421044800F0DEF810BD00006445000895
:1006B000480000204000002010B507488078074916
:1006C0008870042206490548FFF752FE04210448B9
:1006D00000F0C8F810BD0000644500084800002084
:1006E0004000002010B50748007A074988700422AE
:1006F00006490548FFF73CFE0421044800F0B2F823
:1007000010BD0000644500084800002040000020A3
:1007100010B5074800780749887004220649054843
:10072000FFF726FE0421044800F09CF810BD0000ED
:1007300064450008480000204000002010B54548EE
:100740000078012872D14448407844494978884269
:100750007CD14148807842490978884209D10021FA
:100760000120FFF742FE0120FFF72FFEFFF7D0FF29
:100770006CE0394880783A494978884209D10021AB
:100780000220FFF732FE0120FFF71FFEFFF726FFD2
:100790005CE03148807832498978884209D100216B
:1007A0000320FFF722FE0120FFF70FFEFFF784FF73
:1007B0004CE0294880782A49C978884206D100212E
:1007C0000420FFF712FEFFF71FFF3FE0224880786A
:1007D00023490979884209D100210520FFF705FE48
:1007E0000120FFF7F2FDFFF725FF2FE01A48807880
:1007F0001B494979884209D100210620FFF7F5FD00
:100800000120FFF7E2FDFFF72BFF1FE01248807881
:100810001349897988420AD100210720FFF7E5FDB5
:100820000120FFF7D2FDFFF797FE0FE011E00A4825
:1008300080780B49C979884208D100210820FFF748
:10084000D4FD0120FFF7C1FDFFF79CFE0020014908
:10085000087010BD4C0000204400002073450008C3
:100860006445000870B504460D462A4621460248F4
:1008700003F0D6FA70BD0000004C004000BFFEE758
:1008800010B5044803F088FDC4B20349204603F0C4
:100890004DF910BD005000404801002010B5002067
:1008A00008490870401E8860074808611E2048619A
:1008B0000648C861064808624FF4E13003F01CF9AD
:1008C00010BD00004801002078010020E908000860
:1008D000D508000810B501200249087300F018F887
:1008E00010BD00004801002010B503A003F060FD1A
:1008F000064803F05BF910BD4465627567205561D9
:1009000072742046756C6C0A0000000048010020DB
:1009100010B5CD48007B012871D1CB480422016974
:10092000CAA0FFF745FC18B9CAA003F041FD86E153
:10093000C54807220169CEA0FFF73AFC18B9552037
:1009400003F0BEF87BE1C04809220169CAA0FFF7A5
:100950002FFC18B9442003F0B3F870E1BA4808221C
:100960000169C8A0FFF724FC18B94D2003F0A8F8CE
:1009700065E1B54809220169C5A0FFF719FC18B95E
:10098000532003F09DF85AE1AF4807220169C3A044
:10099000FFF70EFC0028CAD0AB4809220169C1A0AC
:1009A000FFF706FC0028C2D0A74809220169C0A0B1
:1009B000FFF7FEFB10B902F05BFD40E1A2480D22FB
:1009C0000169BEA0FFF7F4FB18B9502002F02AFD20
:1009D00035E19D480D220169BCA0FFF7E9FB18B97C
:1009E0005A2002F01FFD2AE197480E220169BBA0A0
:1009F000FFF7DEFB20B9642002F014FD1FE121E1C6
:100A000091480E220169B9A0FFF7D2FB18B96E20F8
:100A100002F008FD13E18C480E220169B7A0FFF730
:100A2000C7FB50B902F0ACF918B9B8A003F0C0FC8C
:100A300005E1BDA003F0BCFC01E183480822016987
:100A4000BFA0FFF7B5FB70B902F09AF918B10E20FC
:100A500002F000FDF3E000F0E9FF002888D001205B
:100A600001F04CFAEBE078480A220169B7A0FFF7E1
:100A70009FFB88B9442003F023F802F081F918B1F4
:100A80000F2002F0E7FCDAE000F0D0FF002894D05D
:100A9000022001F033FAD2E06B480A220169AEA0CD
:100AA000FFF786FB70B902F06BF918B1102002F065
:100AB000D1FCC4E000F0BAFF002889D0032001F087
:100AC0001DFABCE060480B220169A6A0FFF770FB8D
:100AD00028B901F0F3FFA6A003F06AFCAFE05A4882
:100AE0000C220169A6A0FFF763FB28B901F0DCFF27
:100AF000A7A003F05DFCA2E053480C220169A8A066
:100B0000FFF756FB10B9FFF7EDFD98E04E480E22B7
:100B10000169A7A0FFF74CFB10B9FFF749FD8EE074
:100B200049480E220169A6A0FFF742FB10B9FFF762
:100B3000ADFD84E044480D220169A5A0FFF738FB14
:100B400010B9FFF761FD7AE03F4807220169A4A0D0
:100B5000FFF72EFB10B9FFF7DBFD70E03A480922E2
:100B60000169A1A0FFF724FB10B9FFF737FD66E08C
:100B70003548092201699FA0FFF71AFB10B9FFF75A
:100B80009BFD5CE03048082201699DA0FFF710FB47
:100B900010B9FFF739FD52E02B480B2201699BA0E9
:100BA000FFF706FB50B901F01DFD18B99AA003F03C
:100BB000FFFB44E09DA003F0FBFB40E0224806223F
:100BC00001699EA0FFF7F4FA002838D19DA003F038
:100BD000EFFB73A003F0ECFB75A003F0E9FB78A03A
:100BE00003F0E6FB7AA003F0E3FB7DA003F0E0FB5B
:100BF0007DA003F0DDFB7FA003F0DAFB80A003F013
:100C0000D7FBA0A003F0D4FB3CA003F0D1FB4CA089
:100C100003F0CEFB4DA003F0CBFB4FA003F0C8FBCD
:100C2000A8A003F0C5FB4FA003F0C2FB54A003F043
:100C3000BFFBB4A003F0BCFB74A003F0B9FB0248F7
:100C400002F0B4FF10BD0000480100206D69630A86
:100C5000000000007472696767657220746865201F
:100C60006C656420666F72206D69630A0000000085
:100C70006C65642075700A006C656420646F776E23
:100C80000A0000006C6564206D69630A00000000C2
:100C90006C65642073746F700A00000075702061C9
:100CA00070690A00646F776E206170690A00000045
:100CB00073746F70206170690A000000736574209E
:100CC00068656967687438300A00000073657420CD
:100CD00068656967687439300A00000073657420BC
:100CE0006865696768743130300A00007365742084
:100CF0006865696768743131300A000074696D6233
:100D00006F78207374617475730A00004E6F2054FD
:100D1000696D6F74696F6E20426F7820436F6E6EDD
:100D20006563740A0000000054696D6F74696F6E2A
:100D300020426F7820436F6E6E65637465640A00AD
:100D40006D6F76652075700A000000006D6F766526
:100D500020646F776E0A00006D6F76652073746F84
:100D6000700A0000737065616B6572206F6E0A0017
:100D7000537065616B65206973204F6E0A00000037
:100D8000737065616B6572206F66660A0000000013
:100D9000537065616B6572206973206F66660A0027
:100DA00074657374206C65642075700A000000001F
:100DB00074657374206C656420646F776E0A00003C
:100DC00074657374206C65642073746F700A00001E
:100DD00074657374206C6564206D69630A0000009B
:100DE0006D626C2075700A006D626C20646F776EA6
:100DF0000A0000006D626C2073746F700A000000BE
:100E00006D626C206D69630A0000000072706920D9
:100E10007374617475730A004E6F205250492043F9
:100E20006F6E6E65637465640A000000525049205D
:100E3000436F6E6E65637465640A00006C73636D66
:100E4000640A00002D2D2D2D2D2D2D2D2D2D2D2D18
:100E50002D2D2D2D2D2D2D2D2D666F72204D69637D
:100E600020427574746F6E204C6564204D6F6475FC
:100E70006C652D2D2D2D2D2D2D2D2D2D2D2D2D2D2B
:100E80000A0000002D2D2D2D2D2D2D2D2D2D2D2D3C
:100E90002D2D2D2D2D2D2D2D2D666F722054696D2C
:100EA0006F74696F6E20426F782D2D2D2D2D2D2D95
:100EB0002D2D2D2D2D2D2D2D2D2D2D2D2D2D2D2D62
:100EC0000A0000002D2D2D2D2D2D2D2D2D2D2D2DFC
:100ED0002D2D2D2D2D2D2D2D2D666F7220537065EE
:100EE000616B65722D2D2D2D2D2D2D2D2D2D2D2D43
:100EF0002D2D2D2D2D2D2D2D2D2D2D2D2D2D2D2D22
:100F00000A0000002D2D2D2D2D2D2D2D2D2D2D2DBB
:100F10002D2D2D2D2D2D2D2D2D666F7220525049EA
:100F20002D2D2D2D2D2D2D2D2D2D2D2D2D2D2D2DF1
:100F30002D2D2D2D2D2D2D2D2D2D2D2D2D2D2D2DE1
:100F40000A00000010B5202000F004F9102000F085
:100F500041F810BD10B54FF4007000F0FBF850B12F
:100F600001F00EFF10B101F08FFE04E000F05EFD15
:100F700008B101F08BF84FF4807000F02BF810BD31
:100F800010B54FF4003000F0E5F808B102F032FC83
:100F90004FF4803000F01EF810BD10B54FF4001073
:100FA00000F0D8F808B101F025FB4FF4801000F0F4
:100FB00011F810BD10B5054800F0CCF808B101F0EB
:100FC00033F9034800F006F810BD000000020010DD
:100FD0000001001000F0805111B10349086001E0E8
:100FE00002494860704700000404024000000240CB
:100FF00021B1026842F00102026004E002684FF68B
:10100000FE731A400260704701684FF6FE7211408D
:1010100001600021016041608160C1604B498842EC
:1010200008D14A490839496841F00F01474A083A4E
:1010300051608AE045491431884208D14349083952
:10104000496841F0F001414A083A51607DE03F496A
:101050002831884208D13D490839496841F4706116
:101060003A4A083A516070E038493C31884208D128
:1010700036490839496841F47041344A083A5160A8
:1010800063E032495031884208D130490839496813
:1010900041F470212D4A083A516056E02B496431E1
:1010A000884208D129490839496841F47001274A22
:1010B000083A516049E025497831884208D12349EE
:1010C0000839496841F07061204A083A51603CE0B3
:1010D0001F49884206D1011F096841F00F01021F14
:1010E000116032E01A491431884208D11849091FA9
:1010F000096841F0F001164A121F116025E01449F9
:101100002831884208D11249091F096841F47061E9
:101110000F4A121F116018E00D493C31884208D176
:101120000B49091F096841F47041094A121F1160F7
:101130000BE007495031884207D10549091F09686A
:1011400041F47021024A121F1160704708000240EA
:101150000804024001460020002201F0805313B130
:10116000054B1A6801E0054B1A6802EA01030BB14E
:10117000012000E00020704700040240000002400F
:101180001AB103680B43036002E003688B430360FA
:10119000704710B50022026847F6F0739A430C6A54
:1011A0008B6823430C6923434C6923438C69234395
:1011B000CC6923434C6A23438C6A23431A4302605D
:1011C000CB6843600B6883604B68C36010BD034607
:1011D000187808705878487098788870D878C870EF
:1011E000187908715879487198798871D81D886084
:1011F000501E185C8873901E185C4873D01E185CD3
:10120000087388787047014688780A30C0B2704702
:101210000246137AD07903EB002080B2704770B594
:1012200004460D461646324621462846FEF79CFFE8
:1012300070BD0146FF2000228A78CB781344DAB2D1
:101240000B791344DAB24B791344DAB28B79134435
:10125000DAB2CB79934200D10120704770B50446D1
:101260000D462046FFF7CFFF401EC6B220782870FB
:1012700060786870A078A870E078E87020792871AC
:1012800060796871A079A871072004E0C11FA26885
:10129000515C2954401CA178C91D8142F6DCA07B19
:1012A000A855617B701E2954204600F009F8B11E34
:1012B0006854304670BD02680A6082888A80704730
:1012C00001468878CB7818440B7918444B79184438
:1012D0008B79C218002003E08B681B5C1A44401C09
:1012E0008B788342F8DCFF2A04D9FF20B2FBF0F3AD
:1012F00000FB13220A73087B704730B502460B4689
:101300000024002190780144D078014410790144F0
:101310005079014490790144072002E0155C29448A
:10132000401C9578ED1D8542F8DCFF2904D9FF208B
:10133000B1FBF0F500FB1511CDB2D81E105C854253
:1013400000D10124204630BD704701B500BF009890
:10135000411E00910028FAD108BD00000346062175
:1013600006221248018812480288ABB1012B1BD11A
:101370003AB94EF6EE60814201D10020704701205B
:10138000FCE739B94EF6EE60824201D10120F5E763
:101390000020F3E7AB20F1E709B90020EEE70AB936
:1013A0000120EBE7AB20E9E70020E7E700000108B8
:1013B0000008010810B504240B4800F007FA0446A1
:1013C000042C01D0204610BD0021074800F03EFA51
:1013D0000446042C01D02046F5E7044800F0F6F955
:1013E00004462046EFE7000000000108000801085D
:1013F0002DE9F0474FF0060A062600250027A846EB
:101400004FF0FF397448B0F800A0744806885FEACE
:101410000A0075D0A0F56E40EE3858B3A0F588509C
:10142000113800286DD146B96B4800F0CFF9044659
:10143000042C1ED02046BDE8F0874EF6EE608642B2
:1014400010D1654800F0C2F90446042C01D02046B2
:10145000F1E70021614800F0F9F90446042C08D0B6
:101460002046E8E7FFF7A6FF0446042C01D02046FB
:10147000E1E7AEE07EBB002522E05748C08858492E
:1014800031F81510884201D10FFA85F94D4515D074
:10149000534931F81500534900F01EF98046B8F160
:1014A000010F0BD04E4931F815004E49098800F064
:1014B00043F90746042F01D03846BCE7681C85B2C3
:1014C000042DDADB0021444800F0C0F90446042C66
:1014D00002D02046AFE707E0404800F077F9044625
:1014E000042C1FD02046A6E74FF6FF70864212D18B
:1014F0003A4800F06BF90446042C03D020469AE7E2
:1015000011E05EE00021344800F0A0F90446042C0C
:1015100008D020468FE7FFF74DFF0446042C01D08A
:10152000204688E755E036B9FFF744FF0446042C0F
:1015300046D020467FE74FF6FF70864207D1274806
:1015400000F044F90446042C3AD0204673E7002505
:1015500023E02248801D0088214931F81510884277
:1015600001D10FFA85F94D4515D01D4931F8150007
:101570001C4900F0B1F88046B8F1010F0BD01849B2
:1015800031F815001749098800F0D6F80746042FEE
:1015900001D038464FE7681C85B2042DD9DB002105
:1015A0000E4800F053F90446042C01D0204642E7CF
:1015B000094800F00BF90446042C01D020463AE714
:1015C00007E0FFF7F7FE0446042C01D0204632E77F
:1015D00000BF00BF04202EE700000108000801083A
:1015E000D6000020260100202DE9F84F0746894645
:1015F0000425DFF8D0A0344800904FF00008002404
:1016000000264FF0000B0020FFF7A8FE8046B8F13F
:10161000010F04D1DFF8B0A02C4800900AE0B8F127
:10162000000F04D1DFF8A4A02748009002E0AB200F
:10163000BDE8F88F4EF6EE61504600F007F905461A
:10164000042D01D02846F3E74946384600F074F8E7
:101650000646042E01D03046EAE700241CE01C4870
:1016600030F81400B84215D0194931F8140019495E
:1016700000F032F88346BBF1010F0BD0144931F86A
:1016800014001449098800F057F80646042E01D0CA
:101690003046CDE7601C84B2042CE0DB009800F0FB
:1016A00095F80546042D01D02846C1E70021504693
:1016B00000F0CCF80546042D01D02846B8E72846AE
:1016C000B6E70000FF030108000001080008010858
:1016D000D6000020260100202DE9F04706460F46DF
:1016E000002445F255584FF00109124DAA4600203A
:1016F000FFF734FE0446AB2C01D1BDE8F0870D485E
:1017000000EBC42A601C0B49891E01EBC0250AE0CE
:10171000B5F80080B04505D135F8020C38804FF09F
:10172000000904E02D1F0AF102008542F0D800BF35
:101730004846E2E7000001082DE9F04706468846E2
:1017400004270025154CDFF858900120FFF706FE0E
:101750000546AB2D01D1BDE8F087104800EBC5244C
:10176000681C0E49891E01EBC02913E02068401C4B
:1017700078B94146204600F069F80746042F01D0A9
:101780003846E8E73146A01C00F060F807463846C6
:10179000E1E7241D4C45E9D38020DCE70000010887
:1017A000FF07010870B505460E460024314628465D
:1017B000FFF7C2FF0446802C04D131462846FFF7CC
:1017C00013FF0446204670BD7047000030B5044644
:1017D00004254FF4302000F065F80546042D17D19C
:1017E0000C48006940F002000A490861084644615B
:1017F000006940F0400008614FF4302000F052F8DA
:1018000005460448006941F6FD7108400149086138
:10181000284630BD0020024004200B49C96801F071
:10182000010109B101200EE00749C96801F0040176
:1018300009B1022007E00449C96801F0100109B1AB
:10184000032000E0042070470020024070B50446E9
:101850000D460426F00200F025F80646042E11D1AC
:101860000948006940F00100074908612580F0023D
:1018700000F018F806460448006941F6FE71084079
:1018800001490861304670BD00200240024803490A
:1018900048600348486070472301674500200240C4
:1018A000AB89EFCD00B502460423FFF7B5FF034631
:1018B00003E0FFF7B1FF0346521E012B01D1002ABE
:1018C000F7D102B90523184600BD2DE9F0410246C3
:1018D00000250026002000230024002791F803C0E3
:1018E0000CF00F0591F803C00CF0100CBCF1000FC8
:1018F00003D091F802C04CEA050591F800C0BCF194
:10190000000F31D0146800202BE04FF0010C0CFACE
:1019100000F3B1F800C00CEA03069E4220D1830018
:101920004FF00F0C0CFA03F7BC4305FA03FC4CEA2A
:10193000040491F803C0BCF1280F06D14FF0010C4C
:101940000CFA00FCC2F814C00AE091F803C0BCF124
:10195000480F05D14FF0010C0CFA00FCC2F810C082
:10196000401C0828D1D31460B1F800C0BCF1FF0FAF
:1019700034DD546800202EE000F1080C4FF001081F
:1019800008FA0CF3B1F800C00CEA03069E4221D11C
:1019900083004FF00F0C0CFA03F7BC4305FA03FC6D
:1019A0004CEA040491F803C0BCF1280F05D100F102
:1019B000080C08FA0CF8C2F8148091F803C0BCF1C6
:1019C000480F07D100F1080C4FF0010808FA0CF895
:1019D000C2F81080401C0828CED35460BDE8F081C6
:1019E0000246002093680B400BB1012000E000206C
:1019F0007047416170470161704700BFFEE700001A
:101A00004CF6CC40014908607047000000300040AF
:101A10004AF6AA20014908607047000000300040E3
:101A200001490860704700000030004010B51021E7
:101A30000148FFF7D5FF10BD000C014001480088A8
:101A400070470000AA00002001480078704700009D
:101A5000A600002010B50621014800F0B5F810BD21
:101A6000D645000808B50121082000F08FFC282089
:101A70008DF803001020ADF8000002208DF8020060
:101A800069462948FFF721FFFFF7D0FFB0B14FF4B7
:101A90001651264802F09AF809222549234802F0F7
:101AA0001BFA00231A464FF4E061204802F070FA56
:101AB0001E4802F0D1FA1FA002F07AFC1E2226492D
:101AC000264801F0D1F84FF496722549254801F0D7
:101AD000CBF84FF496722449244801F0C5F84FF42E
:101AE00096721F49224801F0BFF84FF496721C49C4
:101AF000204801F0B9F84FF4967219491E4801F0D8
:101B0000B3F84FF4967216491C4801F0ADF84FF443
:101B1000967213491A4801F0A7F84FF496721049CB
:101B2000184801F0A1F808BD000C01400048004031
:101B3000C00100204A696563616E6720436F6E745F
:101B4000726F6C20426F7820646574637420616EDC
:101B50006420696E69740A0079210008E801002098
:101B600069210008F8010020A120000808020020D7
:101B7000180200202802002038020020480200201D
:101B8000580200206802002010B50621014800F02C
:101B90001BF810BDCA45000810B50621014800F029
:101BA00013F810BDEE45000810B50621014800F0FD
:101BB0000BF810BDF445000810B50621014800F0EF
:101BC00003F810BDC445000870B504460D462A460A
:101BD0002146024802F024F970BD00000048004090
:101BE00010B5FFF731FF04460A2C19D2DFE804F0E4
:101BF0004C05192651769BE718FE00F08BFAA44895
:101C000001F03AF8A34801F037F80121A04801F0AB
:101C100016F801219F4801F012F89F490868804793
:101C200033E100F077FA9C4948688047984801F012
:101C300023F80121964801F002F826E100F06AFA43
:101C4000964801F019F80121944800F0F8FF9348F4
:101C500001F007F801280AD191480078012812D133
:101C60008D490868804700208D4908700BE08B483B
:101C700000F0F7FF062803D887498868804702E00C
:101C8000092000F03BF900E100F044FA00F010FAFE
:101C9000FBE000F03FFA7E4800F0EEFF814800F0E4
:101CA000EBFF01217A4800F0CAFF01217D4800F0D6
:101CB000C6FF7C4800F0D5FF012803D17649C868EB
:101CC00080470AE0774800F0CCFF022805D172492E
:101CD00008698047012072490870D6E000F01AFABE
:101CE0006B4800F0C9FF704800F0C6FF012168484A
:101CF00000F0A5FF01216C4800F0A1FF6A4800F048
:101D0000B0FF012803D16449C86880470AE06648EB
:101D100000F0A7FF022805D15F49486980470120EC
:101D20005F490870B1E05B4800F0ABFF5F4800F02E
:101D3000A8FF5A4800F0A5FF5A4800F0A2FF5A48F1
:101D400000F09FFF5A4800F09CFF5A4800F099FFAE
:101D50000021504800F08EFF0021544800F08AFF17
:101D600000214E4800F086FF00214E4800F082FF1F
:101D700000214D4800F07EFF00214D4800F07AFF21
:101D800000214C4800F076FF4B4800F075FF012120
:101D9000494800F054FF484800F063FF052803D885
:101DA0003D498869804709E0434800F06AFF002107
:101DB000414800F05FFF032000F0A0F865E03548DF
:101DC00000F05FFF394800F05CFF344800F059FF35
:101DD000344800F056FF344800F053FF344800F018
:101DE00050FF354800F04DFF002100E035E0294864
:101DF00000F040FF00212D4800F03CFF0021274863
:101E000000F038FF0021274800F034FF0021264869
:101E100000F030FF0021264800F02CFF002126486A
:101E200000F028FF234800F027FF0121214800F09F
:101E300006FF204800F015FF052803D81649C86999
:101E4000804709E01B4800F01CFF0021194800F002
:101E500011FF032000F052F817E000F05BF914487E
:101E600000F00AFF0121124800F0E9FE104800F0DE
:101E7000F8FE032803D80849C868804704E000201A
:101E800000F03CF800F046F900BF00BF10BD0000B4
:101E9000E8010020F8010020A445000838020020D5
:101EA000B3000020180200202802002008020020B1
:101EB00048020020680200205802002010B50621C8
:101EC0000148FFF781FE10BDE245000810B506216C
:101ED0000148FFF779FE10BDE845000800B502464D
:101EE00002480280022000F003F800BDAC00002090
:101EF0000149087070470000A700002001490870E0
:101F000070470000A600002010B506210148FFF729
:101F10005BFE10BDD045000870B54548007802282A
:101F200034D14448008844490988401A00B24349E2
:101F300008800846B0F9001041A002F039FA3F4885
:101F4000B0F90000002806DA00204149087002209C
:101F5000FFF7D4FF1AE03948B0F90000002806DD89
:101F600000203B4908700120FFF7C8FF0EE0012068
:101F7000374908700320FFF7C1FF0120FFF7B8FFC2
:101F80002E48B0F9001033A002F012FA3948007858
:101F900001284BD100243848007838490978884214
:101FA00040DD3AE03648005D36490978884232D152
:101FB0003349601C085C3349097888422BD1304989
:101FC00004F10800085C2F498978884223D12C4904
:101FD00008192A490A782C49FFF721F92A48FFF7FE
:101FE00028F980B1284800F05CF80546002D09DD8D
:101FF000FFF724FDA84205D0284600F0B7F8284690
:1020000000F006FD00BF1C4800780A30C4B2002072
:102010001949087001E0601CC4B217480078401FDD
:10202000A042BFDC00201349087000BF70BD000053
:10203000A7000020AC000020AA000020A80000207B
:102040005B54494D5D6572726F723A25640A0000F7
:10205000B1000020536574204865696768742046A4
:10206000696E6973686564202C2065203D202564B5
:102070000A000000B2000020B0000020A4000020F0
:10208000C9010020A04500087802002010B500F02A
:102090009DF801200149087010BD0000B200002029
:1020A000704701464B790A7903EB022290B27047E0
:1020B00010B500210F4800F0DDFD00210E4800F0B2
:1020C000D9FD00210D4800F0D5FD00210C4800F09D
:1020D000D1FD00210B4800F0CDFD00210A4800F0A1
:1020E000C9FD0021094800F0C5FD0021084800F0A5
:1020F000C1FD10BDE8010020F80100200802002009
:102100003802002018020020280200205802002077
:102110006802002010B50C4800F0B3FD0B4800F039
:10212000B0FD0B4800F0ADFD0A4800F0AAFD0A48DA
:1021300000F0A7FD094800F0A4FD094800F0A1FD4A
:10214000084800F09EFD10BDE8010020F8010020C5
:102150000802002038020020180200202802002077
:1021600058020020680200207047000001490880E2
:1021700070470000AA00002010B5FFF75FFC04467E
:102180000B480088A0420BD10320FFF7B7FE094897
:1021900000F077FDFEF77AFA07A002F009F901E0F6
:1021A000034804800021034800F064FD10BD0000D6
:1021B000AE000020E80100204865696768204E6F86
:1021C000206368616E67650A0000000010B5114861
:1021D000007811490978401A10490978884210DBC3
:1021E0000F490E4A127888180B490A780D49FDF7F5
:1021F000BBFF0A4800780849097808440749087075
:1022000007E0002005490870024801780448FDF7FE
:10221000C4FF10BDA5000020A4000020B0000020D5
:10222000C9010020C001002010B504220349044860
:10223000FEF794F801200349087010BD4400002007
:102240003C0000204C00002010B5FFF71FFBFFF7FB
:10225000CFF810BD38B5044669462046FFF73CFA72
:10226000BDF8000038BD70B504460D46294620462D
:10227000FFF798FA70BD00BFFEE710B5802000F0B0
:1022800033F970B14FF4803000F03AF901210820A1
:1022900000F07AF90121102000F076F9802000F09A
:1022A00095F810BD70B5002100230F22C47804B347
:1022B000154C246804F4E064C4F5E064210AC1F11B
:1022C0000403CA40447804FA03F18478144021439B
:1022D00009010E4C0678A155047804F01F0501246D
:1022E000AC4005786D11AD0005F1E025C5F8004161
:1022F00009E0047804F01F050124AC40044D067881
:10230000761145F8264070BD0CED00E000E400E0D9
:1023100080E100E002490143024A11607047000079
:102320000000FA050CED00E07047000029B1064AF4
:1023300052690243044B5A6104E0034A52698243E2
:10234000014B5A61704700000010024029B1064A53
:10235000D2690243044BDA6104E0034AD269824342
:10236000014BDA61704700000010024029B1064AB3
:1023700012690243044B1A6104E0034A1269824362
:10238000014B1A61704700000010024029B1064A53
:1023900092690243044B9A6104E0034A92698243C2
:1023A000014B9A61704700000010024029B1064AB3
:1023B000D2680243044BDA6004E0034AD2688243E5
:1023C000014BDA607047000000100240014988723A
:1023D000704700000010024030B5002100220024A8
:1023E00000232D4D6D6805F00C0121B1042905D0A5
:1023F000082923D105E0294D056022E0274D05601D
:102400001FE0254D6D6805F47012234D6D6805F4CD
:102410008034022505EB92421CB9214D55430560DD
:102420000BE01D4D6D6805F400351DB11C4D554385
:10243000056002E0194D5543056002E0174D056047
:1024400000BF00BF144D6D6805F0F0010909154D7E
:102450006B5C0568DD4045600F4D6D6805F4E0611B
:10246000090A104D6B5C4568DD4085600A4D6D685A
:1024700005F46051C90A0B4D6B5C4568DD40C560D1
:10248000054D6D6805F44041890B074D6B5CC568CF
:10249000B5FBF3F5056130BD0010024000127A0073
:1024A00000093D00140000202400002010B5014662
:1024B0000022002300204A11012A02D1094C23687E
:1024C00006E0022A02D1074C236A01E0054C636A48
:1024D00001F01F02012494401C400CB1012000E0D7
:1024E000002010BD0010024001460020034A9268FF
:1024F0000A400AB1012000E00020704700100240AD
:102500001149096821F480310F4A116011460968A8
:1025100021F480211160B0F5803F03D0B0F5802F09
:102520000ED106E00849096841F48031064A11607D
:1025300007E00549096841F4A021034A116000E061
:1025400000BF00BF704700000010024010B5082017
:10255000FFF7CAFF48B10820FFF738FF3120FFF727
:10256000A5FF10B1012000F02BF81020FFF7BCFFF1
:1025700048B11020FFF72AFF3920FFF797FF10B16D
:10258000022000F023F810BD29B1064A527A024316
:10259000044B5A7204E0034A527A8243014B5A7246
:1025A000704700000010024001460020034A5068B6
:1025B00020F4E060084350607047000000100240C3
:1025C00001490866704700000000424201460020B1
:1025D000034A506820F00300084350607047000031
:1025E0000010024010B502210148FFF7F9F910BDB3
:1025F0000008014001200149087070478E0000204A
:102600001FB59B48027869469A48FEF7E0FD9DF8A1
:10261000050099494978884272D19DF8060097498A
:102620008978884207D100210120FDF7DEFE94A0C1
:1026300001F0BEFE1BE19DF806009049C978884272
:1026400007D100210220FDF7D0FE92A001F0B0FEDC
:102650000DE19DF8060089490979884207D10021DA
:102660000320FDF7C2FE90A001F0A2FEFFE09DF85E
:1026700006008249497C88420DD17D4801787D4819
:10268000FEF7C6FD04462046FDF78FFE21468AA0D0
:1026900001F08EFEEBE09DF806007849497D884206
:1026A00013D1734801787348FEF7B2FD0446022C3B
:1026B00005D100F003FA86A001F07AFE04E000F0F4
:1026C000F3F983A001F074FED1E09DF806006B4998
:1026D000897D884215D1664801786648FEF798FDE5
:1026E0000446022C04D100210420FDF77EFE06E002
:1026F00000210320FDF779FE7BA001F059FEB6E032
:102700003BE09DF806005D49497988420CD1584864
:1027100001785848FEF77CFD0446002C03DD214675
:102720000720FDF762FEA2E09DF806005349897973
:10273000884204D100210520FDF757FE97E09DF85F
:1027400006004E49C97988420CD149480178494868
:10275000FEF75EFD0446002C03DD21460820FDF750
:1027600044FE84E09DF806004449097A88427ED1FF
:1027700000210620FDF739FE79E09DF805003E496D
:102780000978884273D19DF806003C49497888420F
:1027900021D1394880785B49487138484078887140
:1027A00000F0F8FA00EB80004FF6FF7101EA4004F8
:1027B00055494C70201208700846524988600846F6
:1027C000FEF77EFD51494F48FEF748FD0C214F486A
:1027D00000F0FAF84BE09DF8060028494979884254
:1027E0001FD125488078474948712448407988712D
:1027F00000F036FC044644494C702012087008462C
:10280000404988600846FEF75BFD40493D48FEF7B9
:1028100025FD0C213D4800F0D7F83DA001F0C8FD92
:1028200025E09DF806001549C97988421FD1124854
:102830008078344948711148C079887100F016FCDD
:10284000044631494C702012087008462D498860B2
:102850000846FEF735FD2D492A48FEF7FFFC0C21FE
:102860002A4800F0B1F82AA001F0A2FD00BF1FBD68
:1028700088000020980100207C450008854500085C
:102880004D6F76652055702046726F6D205250490D
:102890000A0000004D6F766520446F776E20467207
:1028A0006F6D205250490A0053746F702046726F4A
:1028B0006D205250490A00005365742048656967CD
:1028C00068742046726F6D205250492025640A00BA
:1028D000537065616B6572204F6E2046726F6D207C
:1028E0005250490A000000007475726E206F6666CF
:1028F000204C6564204D69632046726F6D205250F4
:10290000490A0000B00100208B000020A401002033
:102910004F4B000008B5FF20214908704870022085
:10292000887020488078C8701F48807808711F48D8
:10293000407848711E48807888711E4888600A2057
:102940000873FA20487388734FF461411A4801F004
:102950003DF90C221949184801F0BEFA0023022261
:102960004FF4E061144801F013FB134801F074FBCD
:1029700001210420FFF70AFD28208DF80300022022
:10298000ADF8000003208DF8020069460C48FEF700
:102990009CFF02210A48FFF723F80A49087008BD86
:1029A000B001002077450008804500087C450008FC
:1029B000854500088B00002000440040980100205D
:1029C000000801408A00002070B504460D462A46E2
:1029D0002146024801F024FA70BD00000044004086
:1029E00010B50848007801280AD10748017807483F
:1029F000FEF783FC08B1FFF703FE002001490870D1
:102A000010BD00008E0000208800002098010020EA
:102A100010B504460C48C0780C4948710C48407801
:102A200088710C494C70201208700846074988606C
:102A30000846FEF745FC08490448FEF70FFC0C2148
:102A40000548FFF7C1FF10BD7C450008B00100201C
:102A5000854500088B000020A401002008B5012155
:102A60000820FFF793FC10208DF803000620ADF836
:102A7000000002208DF8020069460248FEF725FF9B
:102A800008BD0000000C014010B504210148FEF70C
:102A9000B2FF10BD000C014010B504210148FEF743
:102AA000A8FF10BD000C014010B5FFF7F5FF4FF473
:102AB0007A70FEF74AFC00F00FF810BD10B500F078
:102AC00003F8FFF7E1FF10BD10B502210148FEF742
:102AD00092FF10BD000C014010B502210148FEF725
:102AE00088FF10BD000C0140704710B500F002F8DF
:102AF00010BD00000CB50020019000903348006824
:102B000040F480303149086000BF3048006800F46C
:102B1000003000900198401C0190009818B901986D
:102B2000B0F5A06FF1D12948006800F4003010B171
:102B30000120009001E0002000900098012843D17E
:102B40002348006840F010002149086008460068EA
:102B500020F0030008600846006840F002000860AA
:102B60001A48406819494860084640684860084665
:102B7000406840F4806048600846406820F47C105B
:102B800048600846406840F4E8104860084600681D
:102B900040F08070086000BF0C48006800F00070D2
:102BA0000028F9D00948406820F003000749486030
:102BB0000846406840F00200486000BF0348406893
:102BC00000F00C000828F9D10CBD000000100240F4
:102BD0000020024010B5FDF7DBFB10BD10B5134817
:102BE000006840F00100114908600846406810493B
:102BF00008400E494860084600680E4908400B49E5
:102C000008600846006820F4802008600846406894
:102C100020F4FE0048604FF41F008860FFF765FF56
:102C20004FF000600449086010BD00000010024031
:102C30000000FFF8FFFFF6FE08ED00E0704770B5FA
:102C400004460D46207B01280AD160682844606054
:102C5000D4E90010884203D3A06808B1A068804777
:102C600070BD014648687047002343600260816080
:102C70000373704741607047017B09B901210173FB
:102C8000704700210173704710B500F043F8012030
:102C90000149087010BD0000F800002070B54FF029
:102CA000FF3500241848007805282ADD24E017485D
:102CB000005D98281ED11549601C085C982819D120
:102CC000201D095C114A601D105C814214D111461F
:102CD000201D085C00280FDD201D0D5C08190C4923
:102CE000FEF7E9FA002008490870084600780A3023
:102CF000C4B201E0601CC4B203480078401FA04287
:102D0000D5DC284670BD0000E300002084020020CE
:102D1000F900002010B51148007811490978401ACF
:102D200010490978884210DB0F480E490978084499
:102D30000E490A680260898881800A48007808493B
:102D4000097808440749087007E000200549087021
:102D5000024801780448FDF720FA10BDD500002094
:102D6000D4000020E300002084020020C8000020DE
:102D700010B50521014800F067F910BD294600088B
:102D800010B54FF480510248FEF72AFE10BD000036
:102D9000000C01400148008870470000F20000204C
:102DA0000148007870470000F600002010B5034984
:102DB00048688047FDF7FCFB10BD0000FC4500089B
:102DC00010B50449C8688047FDF760FC0248FFF76A
:102DD00058FF10BDFC450008E402002010B503496F
:102DE00088688047FDF752FC10BD0000FC450008D4
:102DF00010B5034908688047FDF774FC10BD00005A
:102E0000FC45000808B541F21110FFF723FA4A49C2
:102E1000088042F22220FFF71DFA4849088001216C
:102E20000820FFF7B3FA28208DF803004FF48050F4
:102E3000ADF8000003208DF8020069464048FEF717
:102E400044FD4FF480513E48FEF7CAFD3D490870ED
:102E500001211020FFF79AFA10208DF803004FF49B
:102E6000E070ADF8000069463748FEF72EFD4FF4DC
:102E7000E0713548FEF7BDFD0020344908804880E8
:102E8000C82088800020324908804880C820888077
:102E90000020304908804880C820888000202E49C2
:102EA00008804880C820888000202C4908804880FD
:102EB000C820888000202A4908804880C82088804F
:102EC000FFF75EFFC8B14FF41651264800F07EFEB2
:102ED00006222549234800F0FFFF00231A464FF43D
:102EE000E061204801F054F81E4801F0B5F81F4990
:102EF000086880471EA001F05BFA4FF496722649DD
:102F00002648FFF7B1FE4FF4967223492448FFF795
:102F1000ABFE4FF4967220492248FFF7A5FE4FF40E
:102F200096721D492048FFF79FFE19221F4920482D
:102F3000FFF79AFE08BD0000DE000020E000002040
:102F4000000C0140E50000200010014012010020AB
:102F5000180100201E0100200001002006010020B1
:102F60000C01002000480040C8000020B4000020F0
:102F700054696D6F74696F6E20436F6E74726F6CFD
:102F800020426F7820646574637420616E642069E8
:102F90006E69740A0000000081340008B402002049
:102FA000A4020020D4020020C402002085350008BD
:102FB000E402002010B502494868804710BD0000B7
:102FC000FC4500087047000010B50249886880473A
:102FD00010BD0000FC45000810B502490868804794
:102FE00010BD0000FC45000810B50521014800F0A7
:102FF0002BF810BD3346000810B50521014800F03C
:1030000023F810BD3846000810B50521014800F02E
:103010001BF810BD3D46000810B50521014800F021
:1030200013F810BD4246000810B5FFF7DDFF10BDD4
:1030300010B5FFF7E1FF10BD10B5FFF7E5FF10BDBC
:1030400010B5FFF7E9FF10BD70B504460D462A46DE
:103050002146024800F0E4FE70BD00000048004038
:1030600010B541F21110FFF7F5F810BD10B542F29E
:103070002220FFF7EFF810BD10B500210948FFF737
:10308000F9FD00210848FFF7F5FD00210748FFF78B
:10309000F1FD00210648FFF7EDFD00210548FFF78F
:1030A000E9FD10BDA4020020B4020020C4020020EB
:1030B000D4020020E402002010B505210148FFF7EA
:1030C000C3FF10BD4C46000870B5FFF769FE04460B
:1030D0000121AD48FFF7B3FD252C3FD2DFE804F016
:1030E000F1133F6B989B7C7D7E7F80868C929CC881
:1030F000FDEFEEEDECEB3E3E3EEA3E3E3E3E3E3E1A
:103100003E3E3E3EE9000021A048FFF7B3FD00210E
:103110009F48FFF7AFFD00219E48FFF7ABFD9E489B
:10312000FFF7AAFD9848FFF7A7FD01219A48FFF78E
:1031300086FD9948FFF795FD042805D8FFF74EFE58
:1031400096A001F035F909E0FFF752FE9248FFF72B
:1031500088FD0546294694A001F02AF911E10021D5
:103160008D48FFF787FD00218948FFF783FD002187
:103170008848FFF77FFD8448FFF77EFD8348FFF70F
:103180007BFD01218148FFF75AFD8048FFF769FD6B
:10319000042805D8FFF722FE86A001F009F909E00E
:1031A000FFF704FE7948FFF75CFD0546294684A039
:1031B00001F0FEF8E5E0FFF711FEFFF70FFEFFF765
:1031C0000DFEFFF70BFEFFF757FF012000F03CF963
:1031D000002000F03FF9D4E0D3E0D2E0D1E0D0E02D
:1031E000FFF722FF6848FFF747FDCAE0FFF720FF1F
:1031F0006548FFF741FDC4E0FFF71EFF6248FFF797
:103200003BFDBEE0FFF71CFF5F48FFF735FDB8E070
:10321000FFF7D6FDB5E0B4E000215F48FFF72AFDD7
:1032200000215A48FFF726FD00215948FFF722FDEB
:103230005848FFF721FD5448FFF71EFD012155486E
:10324000FFF7FDFC5348FFF70CFD042805D8FFF7F6
:10325000BBFE5EA001F0ACF809E0FFF7BDFE4D48F3
:10326000FFF7FFFC054629465BA001F0A1F888E0C6
:1032700000214948FFF7FEFC00214448FFF7FAFC13
:1032800000214448FFF7F6FC4148FFF7F5FC3E48B3
:10329000FFF7F2FC01213E48FFF7D1FC3C48FFF765
:1032A000E0FC04280ED8FFF78FFE48A001F080F85C
:1032B00012E058E050E040E030E026E01CE015E08D
:1032C0000BE04FE0FFF776FE3148FFF7CAFC0546FA
:1032D000294644A001F06CF853E0012000F0B4F856
:1032E000FFF772FE002000F0B5F84AE02648FFF72D
:1032F000C8FCFFF767FE44E0FFF7B2FE054600F0AA
:1033000091F8002000F0A6F83BE0FFF7AFFE05467D
:1033100000F088F8002000F09DF832E0FFF73AFD59
:1033200000EB80004FF6FF7101EA4005284600F0EF
:1033300069F8002000F08EF823E0FFF72BFD00EB8A
:1033400080004FF6FF7101EA4005284600F062F860
:10335000002000F07FF814E00B48FFF792FCFFF725
:1033600031FE00BF0DE0FDF791F9FFF72DFEFFF7ED
:103370002BFEFFF729FEFFF727FE002000F06AF87A
:1033800000BF00BF70BD0000E4020020B4020020B6
:10339000D4020020C4020020A4020020485320537D
:1033A000544F500A00000000485320555020256417
:1033B0000A00000048532053746F700A0000000098
:1033C000485320444F574E2025640A004D424C205C
:1033D00053544F500A0000004D424C2055502025B8
:1033E000640A00004D424C20444F574E2025640A89
:1033F0000000000010B505210148FFF725FE10BDB3
:103400004746000810B50446214641F21110FEF768
:103410002AFF10BD10B50446214642F22220FEF7D5
:1034200022FF10BD00B50246B2F5167F08DD40F25E
:10343000DC50824204DA03480280022000F004F8E3
:1034400000BD0000F4000020014908707047000032
:10345000F000002010B5044604480078A04201D0D6
:10346000FFF70AFE0148047010BD0000F6000020BE
:1034700010B505210148FFF7E7FD10BD2E460008F5
:1034800010B52420FFF7E6FF10BD000010B50521A0
:103490000148FFF7D9FD10BD2446000870B52C483F
:1034A000007801281DD1FFF7F9FB00EB80004000F8
:1034B00004B2002C11DD0A2094FBF0F0C5B22548BF
:1034C000816828468847FFF765FCA04205D0A0B276
:1034D00000F04CF8A0B2FFF79BFA00201C490870DE
:1034E00000BF1D480078022828D11C4800881C49CC
:1034F0000988401A00B21B4908800846B0F900004C
:10350000002806DA0020184908700F20FFF7A2FFF4
:1035100014E01448B0F90000002806DD002012492C
:1035200008700E20FFF796FF08E00120FFF78CFFE0
:1035300001200D4908701020FFF78CFF0748008814
:1035400007490988401A00B20649088070BD00008A
:10355000F8000020B4000020F0000020F40000205B
:10356000F2000020EC000020F7000020B0F5167FEC
:1035700005DD40F2DC51884201DA014908807047DC
:10358000F200002010B5FFF705FCC4B20A4800782D
:10359000A04209D12420FFF75DFF0848FFF771FB27
:1035A00007A000F005FF01E0034804700021034874
:1035B000FFF760FB10BD000024010020E4020020A2
:1035C0004865696768204E6F206368616E67650AA9
:1035D0000000000021B1028842F00102028004E0F4
:1035E00002884FF6FE731A400280704710B50446F9
:1035F0006848844208D10121C014FEF7D7FE00219B
:10360000E014FEF7D3FEC4E0B4F1804F08D10121ED
:103610000846FEF7ABFE00210120FEF7A7FEB8E04A
:103620005D48844208D101210220FEF79FFE00215F
:103630000220FEF79BFEACE05848844208D10121ED
:103640000420FEF793FE00210420FEF78FFEA0E089
:103650005348844208D101210820FEF787FE00214B
:103660000820FEF783FE94E04E48844208D10121F1
:103670001020FEF77BFE00211020FEF777FE88E089
:103680004948844208D101212020FEF76FFE002125
:103690002020FEF76BFE7CE04448844208D10121E3
:1036A0004014FEF783FE00216014FEF77FFE70E0F9
:1036B0003F48844209D10121C804FEF777FE00216A
:1036C0004FF40020FEF772FE63E03A48844209D1CD
:1036D00001210805FEF76AFE00214FF48010FEF775
:1036E00065FE56E03448844209D101214805FEF7C1
:1036F0005DFE00214FF40010FEF758FE49E02F4810
:10370000844208D101214020FEF730FE00214020F4
:10371000FEF72CFE3DE02A48844208D1012180209A
:10372000FEF724FE00218020FEF720FE31E0254830
:10373000844208D101218015FEF718FE0021A01552
:10374000FEF714FE25E02048844209D10121080437
:10375000FEF72CFE00214FF48030FEF727FE18E024
:103760001A48844209D101214804FEF71FFE0021B6
:103770004FF40030FEF71AFE0BE01548844208D1E2
:1037800001218804FEF712FE00214FF48020FEF78D
:103790000DFE10BD002C0140000400400008004058
:1037A000000C0040001000400014004000340140B4
:1037B000004C0140005001400054014000180040FE
:1037C000001C004000200040004001400044014037
:1037D0000048014010B50446032005498870C870B0
:1037E000084604714471062100F0DEF810BD0000A7
:1037F0006C00002010B500F0E3F8012001490870CA
:1038000010BD00007200002010B5FF20002115E05F
:103810000D4A525CD82A10D10B4B4A1C9A5CD82A0C
:103820000BD1CA1C9B5C084C0A1DA25C934205D1BB
:1038300023460A1D985C491D00E0491C034A127882
:10384000521F8A42E4DC10BD2C0100206B000020D6
:1038500010B54FF41651094800F0B8F9052208498F
:10386000064800F039FB002301224FF4E0610348D1
:1038700000F08EFB014800F0EFFB10BD0038014066
:10388000640000207047000070B5464800780128A9
:1038900072D1FFF7B9FF0546FFF782FA0446FF2D04
:1038A0007AD0202D5DD00FDC032D3DD005DC45B353
:1038B000012D1FD0022D6ED115E0042D3CD0082D16
:1038C00041D0102D67D145E0502D5BD006DC402D56
:1038D0002ED0442D4CD0482D5DD14FE0602D55D0D9
:1038E000FF2D58D156E00120FFF7B4FD0120FFF76E
:1038F000ABFD50E00220FFF7ADFD0120FFF7A4FD76
:1039000049E084B10F2C0ED00E2C0CD0112C0AD013
:103910000A2C08D00B2C06D00C2C04D00D2C02D075
:103920000320FFF797FD36E00420FFF793FD32E018
:103930000520FFF78FFD2EE00A20FFF78BFD012009
:10394000FFF782FD27E00B20FFF784FD0120FFF742
:103950007BFD20E00C20FFF77DFD0120FFF774FDCB
:1039600019E00D20FFF776FD0120FFF76DFD12E055
:103970000620FFF76FFD0EE012E00DE00720FFF7D5
:1039800069FD08E00820FFF765FD04E00920FFF766
:1039900061FD00E000BF00BF00200249087000BFC9
:1039A00070BD00007200002070B504460D462A4626
:1039B0002146024800F034FA70BD00000038014092
:1039C00010B51148007811490978401A1049097852
:1039D000884210DB0F480E49097808440E490A68EE
:1039E0000260097901710A48007808490978084499
:1039F0000749087007E0002005490870024801786F
:103A00000448FCF7CAFB10BD6B0000206A000020D0
:103A1000690000202C0100206400002000220288A0
:103A20001D4B98420ED01D4B98420BD0B0F1804FE9
:103A300008D01B4B984205D01A4B984202D01A4B23
:103A4000984204D14FF68F731A404B881A43174B94
:103A5000984207D0164B984204D04FF6FF431A40C5
:103A6000CB881A4302808B8883850B8803850A4B99
:103A700098420BD0094B984208D00E4B984205D083
:103A80000D4B984202D00D4B984201D10B7A038620
:103A90000123838270470000002C01400034014064
:103AA0000004004000080040000C004000100040EE
:103AB0000014004000400140004401400048014023
:103AC00010B504462146054800F06BFC00BF4021BC
:103AD000024800F099FB0028F9D010BD00480040D2
:103AE00010B540F22551034800F09BFB08B1FCF7EC
:103AF000C7FE10BD0050004010B50446204600F03F
:103B00001DF800F009F8042200214FF4E06000F0F5
:103B10002FF800F043F810BD10B5012240F22551F6
:103B2000014800F0A8FB10BD0050004070B50446ED
:103B30000D462946204600F0BFFA70BD10B5044678
:103B40002146024800F042F810BD0000005000403D
:103B500010B504462146054800F023FC00BF402173
:103B6000024800F051FB0028F9D010BD0050004081
:103B7000F8B506460C4615463046FEF7CBFB352019
:103B80008DF800008DF801408DF8025001208DF86D
:103B900003006846FEF786FBF8BD000010B5012162
:103BA000014800F0CDFA10BD0050004010B50446A9
:103BB000D4E90401FCF7F1FA4FF0FF30A060606235
:103BC0000146A162E0620020207310BD30B585B0CF
:103BD00005460C468948854232D100F0C7FA0121DA
:103BE0008803FEF7D3FB01210420FEF7CFFB18204A
:103BF0008DF813006815ADF8100003208DF8120041
:103C000004A97F48FDF761FE04208DF8130000022F
:103C1000ADF8100004A97A48FDF757FE0094002083
:103C2000ADF80400ADF80600ADF80800ADF80C00E2
:103C30000C20ADF80A006946284600F041FBDAE0A6
:103C40007048854232D100F091FA01214804FEF714
:103C50007DFB01210420FEF799FB18208DF813004D
:103C60000420ADF8100003208DF8120004A9644868
:103C7000FDF72BFE04208DF813000820ADF810008E
:103C800004A95F48FDF721FE00940020ADF8040070
:103C9000ADF80600ADF80800ADF80C000C20ADF84A
:103CA0000A006946284600F00BFBA4E0564885420E
:103CB00032D100F05BFA01218804FEF747FB0121B5
:103CC0000820FEF763FB18208DF813002815ADF8C7
:103CD000100003208DF8120004A94C48FDF7F5FDF3
:103CE00004208DF813004002ADF8100004A94748E5
:103CF000FDF7EBFD00940020ADF80400ADF80600E0
:103D0000ADF80800ADF80C000C20ADF80A006946CB
:103D1000284600F0D5FA6EE03D48854232D100F0E9
:103D200025FA0121C804FEF711FB01211020FEF73E
:103D30002DFB18208DF813002815ADF81000032076
:103D40008DF8120004A93348FDF7BFFD04208DF85B
:103D500013004002ADF8100004A92E48FDF7B5FD90
:103D600000940020ADF80400ADF80600ADF808009E
:103D7000ADF80C000C20ADF80A006946284600F0AA
:103D80009FFA38E02448854235D100F0EFF901214F
:103D90000805FEF7DBFA01211020FEF7F7FA0121F2
:103DA0002020FEF7F3FA18208DF81300A814ADF8C0
:103DB000100003208DF8120004A91648FDF785FDB8
:103DC00004208DF81300ADF8100004A91348FDF786
:103DD0007CFD00940020ADF80400ADF80600ADF8BD
:103DE0000800ADF80C000C20ADF80A006946284622
:103DF00000F066FA00BF05B030BD00000038014099
:103E0000000801400044004000480040000C014010
:103E1000004C0040001001400050004000140140E0
:103E2000F0B58BB004460E461746201D0090019653
:103E3000102002900397002004908020059000201D
:103E40000690079008904FF44050099000200A9087
:103E50001B48844205D101210846FEF767FA194D37
:103E60001BE01948844206D101210846FEF75EFA9C
:103E7000144D3C3511E01548844206D10121084615
:103E8000FEF754FA0F4D283D07E01148844204D153
:103E900001210220FEF74AFA0E4D2846FDF7B4F83C
:103EA00069462846FDF775F901212846FDF7A0F877
:103EB00001228021204600F04FF90BB0F0BD000038
:103EC00000380140440002400044004000480040E7
:103ED000004C004058040240F0B58BB004460E463A
:103EE0001746201D00900196002002900397049031
:103EF00080200590002006900790202008904FF425
:103F00004050099000200A901B48844205D10121AD
:103F10000846FEF70BFA194D1BE01948844206D1FA
:103F200001210846FEF702FA144D143511E0154838
:103F3000844206D101210846FEF7F8F90F4D283DCD
:103F400007E01148844204D101210220FEF7EEF976
:103F50000E4D2846FDF758F869462846FDF719F931
:103F600001212846FDF744F801224021204600F0B7
:103F7000F3F80BB0F0BD00000038014058000240DB
:103F80000044004000480040004C00403004024023
:103F9000F8B504460D4616461F462846FEF7BAF900
:103FA0008DF801608DF8027001208DF8030024481F
:103FB00084420DD101224021204600F0CDF80F208F
:103FC0008DF8000001220E211E48FDF7D9F833E0DC
:103FD0001D4884420ED101224021204600F0BCF849
:103FE00010208DF8000001220E2116481430FDF734
:103FF000C7F821E0154884420ED101224021204615
:1040000000F0AAF80D208DF8000001220E210D48C5
:104010002838FDF7B5F80FE00D4884420CD1012295
:104020004021204600F098F83A208DF80000012247
:104030000E210848FDF7A4F86846FEF733F9F8BDED
:104040000038014058000240004400400048004051
:10405000004C00403004024010B504461148844230
:1040600003D1012100F06CF81AE00F48844203D11B
:10407000012100F065F813E00C48844203D10121CE
:1040800000F05EF80CE00A48844203D1012100F000
:1040900057F805E00748844202D1012100F050F8AA
:1040A00010BD0000003801400044004000480040BE
:1040B000004C00400050004070B505460C46606959
:1040C000401EA168814233DAA068401CA060A1684C
:1040D000206945542078052829D2DFE800F008033C
:1040E0000F2319000D2D01D1206A80471FE00A2DF2
:1040F00003D1206A08B1206A804718E00A2D06D152
:10410000207E0D2803D1206A08B1206A80470EE086
:10411000D4E90101401E814203DB206A08B1206A14
:10412000804704E0206A08B1206A804700BF06E0AB
:104130004FF0FF30A060E06908B1E069804770BDD2
:1041400021B1828942F40052828104E082894DF6D5
:10415000FF731A40828170471AB1838A0B438382AE
:1041600002E0838A8B4383827047000010B50446C7
:104170002048844209D101218803FEF717F9002164
:104180004FF48040FEF712F932E01B48844209D117
:1041900001214804FEF7EAF800214FF40030FEF751
:1041A000E5F825E01548844209D101218804FEF78D
:1041B000DDF800214FF48020FEF7D8F818E0104811
:1041C000844209D10121C804FEF7D0F800214FF440
:1041D0000020FEF7CBF80BE00A48844208D1012109
:1041E0000805FEF7C3F800214FF48010FEF7BEF873
:1041F00010BD00000038014000440040004800406D
:10420000004C00400050004002460020B1F5007F05
:1042100000D100BF13880B400BB1012000E000204B
:10422000704770B50246002400230025002040F6A8
:104230006A16B14200D100BFC1F3421501F01F035D
:10424000012606FA03F3012D02D19689334006E0D8
:10425000022D02D1168A334001E0968A33400C12B7
:10426000012606FA04F41688344013B10CB101207B
:1042700000E0002070BDF0B50346002400260025B4
:10428000002040F66A17B94200D100BF1846C1F3BA
:10429000421401F01F06012707FA06F5012C01D18F
:1042A0000C3004E0022C01D1103000E014301AB1BF
:1042B00007682F43076002E00768AF430760F0BD5F
:1042C0002DE9F04786B005460E460024A24600BF01
:1042D000A1460027B08900B100BF2F462C8A4CF6BA
:1042E000FF700440F08804432C82AC894EF6F31032
:1042F0000440B08831890843718908430443AC8184
:10430000AC8A4FF6FF400440B0890443AC8201A858
:10431000FEF762F81F48874202D1DDF810A001E0E5
:10432000DDF80CA0A88900F4004040B10AEBCA00F7
:1043300000EB0A1031684900B0FBF1F807E00AEB26
:10434000CA0000EB0A1031688900B0FBF1F8642064
:10435000B8FBF0F004012009642101FB1089A88951
:1043600000F4004040B1322000EBC900B0FBF1F096
:1043700000F00700044308E0322000EB091064213C
:10438000B0FBF1F000F00F0004432C8106B0BDE853
:10439000F08700000038014001468888C0F308001B
:1043A0007047C1F308028280704700BFFEE700003B
:1043B0000FB4054B10B503A9044A029800F018F891
:1043C00010BC5DF814FB00004545000828010020E2
:1043D00002E008C8121F08C1002AFAD170477047CE
:1043E000002001E001C1121F002AFBD1704700002C
:1043F0002DE9FF4F89B09B460446002506E025289D
:104400000BD05A460B999047641C6D1C20780028ED
:10441000F5D10DB02846BDE8F08F0027B84601223F
:10442000474900E0074314F8013F203B02FA03F03C
:104430000842F7D120782E2819D114F8010F47F03F
:1044400004072A280ED06FF02F022078A0F1300147
:1044500009290CD808EB880102EB410100EB0108A7
:10446000641CF2E70A98641C50F8048B0A902078C8
:104470000028CED0642808D0692806D075281ED020
:104480005A460B9990476D1C58E00A994FF00A095B
:1044900001C90A91002802DA40422D2102E03905C3
:1044A00004D52B218DF82010012103E0F90704D059
:1044B0002021F7E78A4608AE0DE00021FAE70A99C5
:1044C0004FF00A0901C90A91F7E74946FBF77FFE59
:1044D000303106F8011D0028F7D1ADEB060000F1E0
:1044E0002009780701D44FF00108C84502DDA8EB88
:1044F000090000E000208046002706E008A85A4690
:10450000C05D0B9990476D1C7F1C5745F6DB04E09E
:1045100030205A460B9990476D1CB8F10001A8F164
:104520000108F5DC05E016F8010B5A460B99904797
:104530006D1CB9F10001A9F10109F4DC641C65E707
:104540000928010070B504460D46E0B2FFF700FBF4
:10455000204670BDFDF778FEFBF78EFE01E0FBF70D
:10456000F1FEFCE70102030405060708090A0B0C2B
:104570000D0E0F01020304010203040501020304EE
:1045800001020304050102030405060708090A0BDA
:104590000C0D0E0F10111213141516171800000031
:1045A000F2F27E00B91B0008891B0008091F0008F1
:1045B000551A0008991B0008A91B0008BD1E000819
:1045C000CD1E0008F1F10100017EF1F10200027E32
:1045D000F1F10A000A7EF1F10700077EF1F10C000B
:1045E0000C7EF1F10300037EF1F10400047EF1F191
:1045F0000500057EF1F10600067E00008D340008FE
:10460000712D000871340008B9300008E92F000846
:10461000F92F00080930000819300008F5330008A8
:1046200011112222D8D8660202D8D8660101D8D842
:10463000660000D8D8660404D8D8660808D8D866BA
:104640001010D8D8662020D8D8664040D8D8660345
:104650000300000074460008000000202C01000048
:1046600020020008DC4600082C010020CC050000D8
:10467000E04300081184A24A046809010203040609
:104680000708090C6910170204060851381B08892D
:104690000413D5371B08850813C1390214080918FB
:1046A000280F16051C98980303241A0C730A150189
:1046B0001C1C091E091B3C2003E83E091A6461808A
:1046C0000B061E11112222777788884ED8D86602F1
:0C46D00002E4116BC6024801300000003B
:0400000508000131BD
:00000001FF
